{
  "contractName": "ArrayUtil",
  "abi": [
    {
      "constant": true,
      "inputs": [
        {
          "name": "vals",
          "type": "address[]"
        },
        {
          "name": "search",
          "type": "address"
        }
      ],
      "name": "contains",
      "outputs": [
        {
          "name": "",
          "type": "bool"
        }
      ],
      "payable": false,
      "stateMutability": "pure",
      "type": "function"
    }
  ],
  "bytecode": "0x6060604052341561000f57600080fd5b6101768061001e6000396000f300606060405260043610610041576000357c0100000000000000000000000000000000000000000000000000000000900463ffffffff1680633da80d6614610046575b600080fd5b6100b260048080359060200190820180359060200190808060200260200160405190810160405280939291908181526020018383602002808284378201915050505050509190803573ffffffffffffffffffffffffffffffffffffffff169060200190919050506100cc565b604051808215151515815260200191505060405180910390f35b600080600090505b835181101561013e578273ffffffffffffffffffffffffffffffffffffffff16848281518110151561010257fe5b9060200190602002015173ffffffffffffffffffffffffffffffffffffffff1614156101315760019150610143565b80806001019150506100d4565b600091505b50929150505600a165627a7a7230582036ababaebb0830b5bf4798cceeb1df4702042b8e76ab076320699e8050de39b00029",
  "source": "pragma solidity ^0.4.18;\r\n\r\nlibrary ArrayUtil {\r\n    function contains(address[] vals, address search) public pure returns (bool) {\r\n        for (uint i = 0; i < vals.length; i++) {\r\n            if (vals[i] == search) {\r\n                return true;\r\n            }\r\n        }\r\n        return false;\r\n    }\r\n}",
  "sourcePath": "C:\\dev\\eth-fundraiser\\contracts\\ArrayUtil.sol",
  "compiler": {
    "name": "solc",
    "version": "0.4.18+commit.9cf6e910.Emscripten.clang"
  },
  "schemaVersion": "1.0.1",
  "updatedAt": "2018-01-23T16:08:29.248Z"
}