{
  "contractName": "Fundraiser",
  "abi": [
    {
      "constant": true,
      "inputs": [],
      "name": "active",
      "outputs": [
        {
          "name": "",
          "type": "bool"
        }
      ],
      "payable": false,
      "stateMutability": "view",
      "type": "function"
    },
    {
      "constant": true,
      "inputs": [],
      "name": "name",
      "outputs": [
        {
          "name": "",
          "type": "string"
        }
      ],
      "payable": false,
      "stateMutability": "view",
      "type": "function"
    },
    {
      "constant": false,
      "inputs": [],
      "name": "withdrawRefund",
      "outputs": [
        {
          "name": "",
          "type": "bool"
        }
      ],
      "payable": false,
      "stateMutability": "nonpayable",
      "type": "function"
    },
    {
      "constant": false,
      "inputs": [
        {
          "name": "invitee",
          "type": "address"
        }
      ],
      "name": "invite",
      "outputs": [],
      "payable": false,
      "stateMutability": "nonpayable",
      "type": "function"
    },
    {
      "constant": true,
      "inputs": [
        {
          "name": "",
          "type": "address"
        }
      ],
      "name": "weiBalances",
      "outputs": [
        {
          "name": "",
          "type": "uint256"
        }
      ],
      "payable": false,
      "stateMutability": "view",
      "type": "function"
    },
    {
      "constant": false,
      "inputs": [],
      "name": "abandon",
      "outputs": [],
      "payable": false,
      "stateMutability": "nonpayable",
      "type": "function"
    },
    {
      "constant": false,
      "inputs": [],
      "name": "contribute",
      "outputs": [],
      "payable": true,
      "stateMutability": "payable",
      "type": "function"
    },
    {
      "constant": true,
      "inputs": [],
      "name": "getTotalWeiContributed",
      "outputs": [
        {
          "name": "",
          "type": "uint256"
        }
      ],
      "payable": false,
      "stateMutability": "view",
      "type": "function"
    },
    {
      "constant": true,
      "inputs": [],
      "name": "curator",
      "outputs": [
        {
          "name": "",
          "type": "address"
        }
      ],
      "payable": false,
      "stateMutability": "view",
      "type": "function"
    },
    {
      "constant": true,
      "inputs": [],
      "name": "weiGoal",
      "outputs": [
        {
          "name": "",
          "type": "uint256"
        }
      ],
      "payable": false,
      "stateMutability": "view",
      "type": "function"
    },
    {
      "inputs": [
        {
          "name": "_name",
          "type": "string"
        },
        {
          "name": "_weiGoal",
          "type": "uint256"
        }
      ],
      "payable": false,
      "stateMutability": "nonpayable",
      "type": "constructor"
    }
  ],
  "bytecode": "0x6060604052341561000f57600080fd5b604051610db8380380610db8833981016040528080518201919060200180519060200190919050506001600560006101000a81548160ff021916908315150217905550336000806101000a81548173ffffffffffffffffffffffffffffffffffffffff021916908373ffffffffffffffffffffffffffffffffffffffff16021790555081600190805190602001906100a892919061011a565b5080600281905550600380548060010182816100c4919061019a565b9160005260206000209001600033909190916101000a81548173ffffffffffffffffffffffffffffffffffffffff021916908373ffffffffffffffffffffffffffffffffffffffff1602179055505050506101eb565b828054600181600116156101000203166002900490600052602060002090601f016020900481019282601f1061015b57805160ff1916838001178555610189565b82800160010185558215610189579182015b8281111561018857825182559160200191906001019061016d565b5b50905061019691906101c6565b5090565b8154818355818115116101c1578183600052602060002091820191016101c091906101c6565b5b505050565b6101e891905b808211156101e45760008160009055506001016101cc565b5090565b90565b610bbe806101fa6000396000f3006060604052600436106100a4576000357c0100000000000000000000000000000000000000000000000000000000900463ffffffff16806302fb0c5e146100a957806306fdde03146100d6578063110f8874146101645780634b77c468146101915780636ef9e145146101ca5780638831883414610217578063d7bb99ba1461022c578063d90eaf4014610236578063e66f53b71461025f578063ec7dfb4d146102b4575b600080fd5b34156100b457600080fd5b6100bc6102dd565b604051808215151515815260200191505060405180910390f35b34156100e157600080fd5b6100e96102f0565b6040518080602001828103825283818151815260200191508051906020019080838360005b8381101561012957808201518184015260208101905061010e565b50505050905090810190601f1680156101565780820380516001836020036101000a031916815260200191505b509250505060405180910390f35b341561016f57600080fd5b61017761038e565b604051808215151515815260200191505060405180910390f35b341561019c57600080fd5b6101c8600480803573ffffffffffffffffffffffffffffffffffffffff16906020019091905050610510565b005b34156101d557600080fd5b610201600480803573ffffffffffffffffffffffffffffffffffffffff169060200190919050506105ec565b6040518082815260200191505060405180910390f35b341561022257600080fd5b61022a610604565b005b6102346106c6565b005b341561024157600080fd5b6102496108d2565b6040518082815260200191505060405180910390f35b341561026a57600080fd5b610272610b16565b604051808273ffffffffffffffffffffffffffffffffffffffff1673ffffffffffffffffffffffffffffffffffffffff16815260200191505060405180910390f35b34156102bf57600080fd5b6102c7610b3b565b6040518082815260200191505060405180910390f35b600560009054906101000a900460ff1681565b60018054600181600116156101000203166002900480601f0160208091040260200160405190810160405280929190818152602001828054600181600116156101000203166002900480156103865780601f1061035b57610100808354040283529160200191610386565b820191906000526020600020905b81548152906001019060200180831161036957829003601f168201915b505050505081565b600080600560009054906101000a900460ff161515156103ad57600080fd5b6103b56108d2565b9050803073ffffffffffffffffffffffffffffffffffffffff16311415156103d957fe5b600560009054906101000a900460ff161515156103f257fe5b6000600460003373ffffffffffffffffffffffffffffffffffffffff1673ffffffffffffffffffffffffffffffffffffffff168152602001908152602001600020541115610507573373ffffffffffffffffffffffffffffffffffffffff166108fc600460003373ffffffffffffffffffffffffffffffffffffffff1673ffffffffffffffffffffffffffffffffffffffff168152602001908152602001600020549081150290604051600060405180830381858888f1935050505015156104b957600080fd5b6000600460003373ffffffffffffffffffffffffffffffffffffffff1673ffffffffffffffffffffffffffffffffffffffff168152602001908152602001600020819055506001915061050c565b600091505b5090565b6000809054906101000a900473ffffffffffffffffffffffffffffffffffffffff1673ffffffffffffffffffffffffffffffffffffffff163373ffffffffffffffffffffffffffffffffffffffff1614151561056b57600080fd5b600560009054906101000a900460ff16151561058657600080fd5b6003805480600101828161059a9190610b41565b9160005260206000209001600083909190916101000a81548173ffffffffffffffffffffffffffffffffffffffff021916908373ffffffffffffffffffffffffffffffffffffffff1602179055505050565b60046020528060005260406000206000915090505481565b60008060009054906101000a900473ffffffffffffffffffffffffffffffffffffffff1673ffffffffffffffffffffffffffffffffffffffff163373ffffffffffffffffffffffffffffffffffffffff1614151561066157600080fd5b600560009054906101000a900460ff16151561067c57600080fd5b6106846108d2565b9050803073ffffffffffffffffffffffffffffffffffffffff16311415156106a857fe5b6000600560006101000a81548160ff02191690831515021790555050565b600380548060200260200160405190810160405280929190818152602001828054801561074857602002820191906000526020600020905b8160009054906101000a900473ffffffffffffffffffffffffffffffffffffffff1673ffffffffffffffffffffffffffffffffffffffff16815260200190600101908083116106fe575b505050505073__ArrayUtil_____________________________633da80d669091336000604051602001526040518363ffffffff167c010000000000000000000000000000000000000000000000000000000002815260040180806020018373ffffffffffffffffffffffffffffffffffffffff1673ffffffffffffffffffffffffffffffffffffffff168152602001828103825284818151815260200191508051906020019060200280838360005b838110156108135780820151818401526020810190506107f8565b50505050905001935050505060206040518083038186803b151561083657600080fd5b6102c65a03f4151561084757600080fd5b50505060405180519050151561085c57600080fd5b600560009054906101000a900460ff16151561087757600080fd5b60003411151561088357fe5b34600460003373ffffffffffffffffffffffffffffffffffffffff1673ffffffffffffffffffffffffffffffffffffffff16815260200190815260200160002060008282540192505081905550565b6000806000600380548060200260200160405190810160405280929190818152602001828054801561095957602002820191906000526020600020905b8160009054906101000a900473ffffffffffffffffffffffffffffffffffffffff1673ffffffffffffffffffffffffffffffffffffffff168152602001906001019080831161090f575b505050505073__ArrayUtil_____________________________633da80d669091336000604051602001526040518363ffffffff167c010000000000000000000000000000000000000000000000000000000002815260040180806020018373ffffffffffffffffffffffffffffffffffffffff1673ffffffffffffffffffffffffffffffffffffffff168152602001828103825284818151815260200191508051906020019060200280838360005b83811015610a24578082015181840152602081019050610a09565b50505050905001935050505060206040518083038186803b1515610a4757600080fd5b6102c65a03f41515610a5857600080fd5b505050604051805190501515610a6d57600080fd5b60009150600090505b600380549050811015610b0e5760046000600383815481101515610a9657fe5b906000526020600020900160009054906101000a900473ffffffffffffffffffffffffffffffffffffffff1673ffffffffffffffffffffffffffffffffffffffff1673ffffffffffffffffffffffffffffffffffffffff16815260200190815260200160002054820191508080600101915050610a76565b819250505090565b6000809054906101000a900473ffffffffffffffffffffffffffffffffffffffff1681565b60025481565b815481835581811511610b6857818360005260206000209182019101610b679190610b6d565b5b505050565b610b8f91905b80821115610b8b576000816000905550600101610b73565b5090565b905600a165627a7a723058209af3b5f6075ace938f71c95bc98a71d6020eb65230137f5a9eb0c23acac518b90029",
  "source": "pragma solidity ^0.4.18;\r\nimport {ArrayUtil} from \"./ArrayUtil.sol\";\r\n\r\ncontract Fundraiser {\r\n    using ArrayUtil for address[];\r\n    address public curator;\r\n    string public name;\r\n    uint public weiGoal;\r\n    address[] private members;\r\n    mapping(address => uint) public weiBalances;\r\n    bool public active;\r\n\r\n    function Fundraiser(string _name, uint _weiGoal) public {\r\n        active = true;\r\n        curator = msg.sender;\r\n        name = _name;\r\n        weiGoal = _weiGoal;\r\n        members.push(msg.sender);\r\n    }\r\n\r\n    modifier onlyCurator {\r\n        require(msg.sender == curator);\r\n        _;\r\n    }\r\n\r\n    modifier onlyMembers {\r\n        require(members.contains(msg.sender));\r\n        _;\r\n    }\r\n\r\n    modifier onlyActive {\r\n        require(active);\r\n        _;\r\n    }\r\n\r\n    modifier onlyAbandoned {\r\n        require(!active);\r\n        _;\r\n    }\r\n\r\n    function invite(address invitee) public onlyCurator onlyActive {\r\n        members.push(invitee);\r\n        // TODO fire event that can be detected to send emails, etc...\r\n    }\r\n\r\n    function contribute() public payable onlyMembers onlyActive {\r\n        assert(msg.value > 0);\r\n        weiBalances[msg.sender] += msg.value;\r\n    }\r\n\r\n    function getTotalWeiContributed() public view onlyMembers returns (uint) {\r\n        uint total = 0;\r\n        for (uint i = 0; i < members.length; i++) {\r\n            total += weiBalances[members[i]];\r\n        }\r\n        return total;\r\n    }\r\n\r\n    function abandon() public onlyCurator onlyActive () {\r\n        var totalWeiContributed = getTotalWeiContributed();\r\n        assert(this.balance == totalWeiContributed);\r\n        active = false;\r\n    }\r\n\r\n    function withdrawRefund() public onlyAbandoned returns (bool) {\r\n        var totalWeiContributed = getTotalWeiContributed();\r\n        assert(this.balance == totalWeiContributed);\r\n        assert(!active);\r\n\r\n        if (weiBalances[msg.sender] > 0) {\r\n            msg.sender.transfer(weiBalances[msg.sender]);\r\n            weiBalances[msg.sender] = 0;\r\n            return true;\r\n        }\r\n\r\n        return false;\r\n    }\r\n}",
  "sourcePath": "C:\\dev\\eth-fundraiser\\contracts\\Fundraiser.sol",
  "compiler": {
    "name": "solc",
    "version": "0.4.18+commit.9cf6e910.Emscripten.clang"
  },
  "schemaVersion": "1.0.1",
  "updatedAt": "2018-01-23T19:27:42.801Z"
}