{
  "contractName": "Fundraiser",
  "abi": [
    {
      "constant": true,
      "inputs": [],
      "name": "name",
      "outputs": [
        {
          "name": "",
          "type": "string"
        }
      ],
      "payable": false,
      "stateMutability": "view",
      "type": "function"
    },
    {
      "constant": false,
      "inputs": [
        {
          "name": "invitee",
          "type": "address"
        }
      ],
      "name": "invite",
      "outputs": [],
      "payable": false,
      "stateMutability": "nonpayable",
      "type": "function"
    },
    {
      "constant": false,
      "inputs": [],
      "name": "contribute",
      "outputs": [],
      "payable": true,
      "stateMutability": "payable",
      "type": "function"
    },
    {
      "constant": true,
      "inputs": [],
      "name": "getTotalWeiContributed",
      "outputs": [
        {
          "name": "",
          "type": "uint256"
        }
      ],
      "payable": false,
      "stateMutability": "view",
      "type": "function"
    },
    {
      "constant": true,
      "inputs": [],
      "name": "curator",
      "outputs": [
        {
          "name": "",
          "type": "address"
        }
      ],
      "payable": false,
      "stateMutability": "view",
      "type": "function"
    },
    {
      "constant": true,
      "inputs": [],
      "name": "weiGoal",
      "outputs": [
        {
          "name": "",
          "type": "uint256"
        }
      ],
      "payable": false,
      "stateMutability": "view",
      "type": "function"
    },
    {
      "inputs": [
        {
          "name": "_name",
          "type": "string"
        },
        {
          "name": "_weiGoal",
          "type": "uint256"
        }
      ],
      "payable": false,
      "stateMutability": "nonpayable",
      "type": "constructor"
    }
  ],
  "bytecode": "0x6060604052341561000f57600080fd5b60405161096038038061096083398101604052808051820191906020018051906020019091905050336000806101000a81548173ffffffffffffffffffffffffffffffffffffffff021916908373ffffffffffffffffffffffffffffffffffffffff160217905550816001908051906020019061008d9291906100ff565b5080600281905550600380548060010182816100a9919061017f565b9160005260206000209001600033909190916101000a81548173ffffffffffffffffffffffffffffffffffffffff021916908373ffffffffffffffffffffffffffffffffffffffff1602179055505050506101d0565b828054600181600116156101000203166002900490600052602060002090601f016020900481019282601f1061014057805160ff191683800117855561016e565b8280016001018555821561016e579182015b8281111561016d578251825591602001919060010190610152565b5b50905061017b91906101ab565b5090565b8154818355818115116101a6578183600052602060002091820191016101a591906101ab565b5b505050565b6101cd91905b808211156101c95760008160009055506001016101b1565b5090565b90565b610781806101df6000396000f300606060405260043610610078576000357c0100000000000000000000000000000000000000000000000000000000900463ffffffff16806306fdde031461007d5780634b77c4681461010b578063d7bb99ba14610144578063d90eaf401461014e578063e66f53b714610177578063ec7dfb4d146101cc575b600080fd5b341561008857600080fd5b6100906101f5565b6040518080602001828103825283818151815260200191508051906020019080838360005b838110156100d05780820151818401526020810190506100b5565b50505050905090810190601f1680156100fd5780820380516001836020036101000a031916815260200191505b509250505060405180910390f35b341561011657600080fd5b610142600480803573ffffffffffffffffffffffffffffffffffffffff16906020019091905050610293565b005b61014c610354565b005b341561015957600080fd5b610161610539565b6040518082815260200191505060405180910390f35b341561018257600080fd5b61018a6106d9565b604051808273ffffffffffffffffffffffffffffffffffffffff1673ffffffffffffffffffffffffffffffffffffffff16815260200191505060405180910390f35b34156101d757600080fd5b6101df6106fe565b6040518082815260200191505060405180910390f35b60018054600181600116156101000203166002900480601f01602080910402602001604051908101604052809291908181526020018280546001816001161561010002031660029004801561028b5780601f106102605761010080835404028352916020019161028b565b820191906000526020600020905b81548152906001019060200180831161026e57829003601f168201915b505050505081565b6000809054906101000a900473ffffffffffffffffffffffffffffffffffffffff1673ffffffffffffffffffffffffffffffffffffffff163373ffffffffffffffffffffffffffffffffffffffff161415156102ee57600080fd5b600380548060010182816103029190610704565b9160005260206000209001600083909190916101000a81548173ffffffffffffffffffffffffffffffffffffffff021916908373ffffffffffffffffffffffffffffffffffffffff1602179055505050565b60038054806020026020016040519081016040528092919081815260200182805480156103d657602002820191906000526020600020905b8160009054906101000a900473ffffffffffffffffffffffffffffffffffffffff1673ffffffffffffffffffffffffffffffffffffffff168152602001906001019080831161038c575b505050505073__ArrayUtil_____________________________633da80d669091336000604051602001526040518363ffffffff167c010000000000000000000000000000000000000000000000000000000002815260040180806020018373ffffffffffffffffffffffffffffffffffffffff1673ffffffffffffffffffffffffffffffffffffffff168152602001828103825284818151815260200191508051906020019060200280838360005b838110156104a1578082015181840152602081019050610486565b50505050905001935050505060206040518083038186803b15156104c457600080fd5b6102c65a03f415156104d557600080fd5b5050506040518051905015156104ea57600080fd5b34600460003373ffffffffffffffffffffffffffffffffffffffff1673ffffffffffffffffffffffffffffffffffffffff16815260200190815260200160002060008282540192505081905550565b600060038054806020026020016040519081016040528092919081815260200182805480156105bd57602002820191906000526020600020905b8160009054906101000a900473ffffffffffffffffffffffffffffffffffffffff1673ffffffffffffffffffffffffffffffffffffffff1681526020019060010190808311610573575b505050505073__ArrayUtil_____________________________633da80d669091336000604051602001526040518363ffffffff167c010000000000000000000000000000000000000000000000000000000002815260040180806020018373ffffffffffffffffffffffffffffffffffffffff1673ffffffffffffffffffffffffffffffffffffffff168152602001828103825284818151815260200191508051906020019060200280838360005b8381101561068857808201518184015260208101905061066d565b50505050905001935050505060206040518083038186803b15156106ab57600080fd5b6102c65a03f415156106bc57600080fd5b5050506040518051905015156106d157600080fd5b61029a905090565b6000809054906101000a900473ffffffffffffffffffffffffffffffffffffffff1681565b60025481565b81548183558181151161072b5781836000526020600020918201910161072a9190610730565b5b505050565b61075291905b8082111561074e576000816000905550600101610736565b5090565b905600a165627a7a7230582031703f6fb0751072fdd24f87bc5d3714d0cfeabf1b94ee0a0baefc214341f9b80029",
  "source": "pragma solidity ^0.4.18;\r\nimport {ArrayUtil} from \"./ArrayUtil.sol\";\r\n\r\ncontract Fundraiser {\r\n    using ArrayUtil for address[];\r\n    address public curator;\r\n    string public name;\r\n    uint public weiGoal;\r\n    address[] private invitees;\r\n    mapping(address => uint) private weiBalances;\r\n\r\n    function Fundraiser(string _name, uint _weiGoal) public {\r\n        curator = msg.sender;\r\n        name = _name;\r\n        weiGoal = _weiGoal;\r\n        invitees.push(msg.sender);\r\n    }\r\n\r\n    modifier onlyCurator {\r\n        require(msg.sender == curator);\r\n        _;\r\n    }\r\n\r\n    modifier onlyMembers {\r\n        require(invitees.contains(msg.sender));\r\n        _;\r\n    }\r\n\r\n    function invite(address invitee) public onlyCurator {\r\n        invitees.push(invitee);\r\n        // TODO fire event that can be detected to send emails, etc...\r\n    }\r\n\r\n    function contribute() public payable onlyMembers {\r\n        weiBalances[msg.sender] += msg.value;\r\n    }\r\n\r\n    function getTotalWeiContributed() public view onlyMembers returns (uint) {\r\n        return 666; //todo\r\n    }\r\n}",
  "sourcePath": "C:\\dev\\eth-fundraiser\\contracts\\Fundraiser.sol",
  "compiler": {
    "name": "solc",
    "version": "0.4.18+commit.9cf6e910.Emscripten.clang"
  },
  "schemaVersion": "1.0.1",
  "updatedAt": "2018-01-23T16:08:29.248Z"
}