{
  "contractName": "Fundraiser",
  "abi": [
    {
      "constant": true,
      "inputs": [],
      "name": "name",
      "outputs": [
        {
          "name": "",
          "type": "string"
        }
      ],
      "payable": false,
      "stateMutability": "view",
      "type": "function"
    },
    {
      "constant": false,
      "inputs": [
        {
          "name": "invitee",
          "type": "address"
        }
      ],
      "name": "invite",
      "outputs": [],
      "payable": false,
      "stateMutability": "nonpayable",
      "type": "function"
    },
    {
      "constant": true,
      "inputs": [
        {
          "name": "",
          "type": "address"
        }
      ],
      "name": "weiBalances",
      "outputs": [
        {
          "name": "",
          "type": "uint256"
        }
      ],
      "payable": false,
      "stateMutability": "view",
      "type": "function"
    },
    {
      "constant": false,
      "inputs": [],
      "name": "contribute",
      "outputs": [],
      "payable": true,
      "stateMutability": "payable",
      "type": "function"
    },
    {
      "constant": true,
      "inputs": [],
      "name": "curator",
      "outputs": [
        {
          "name": "",
          "type": "address"
        }
      ],
      "payable": false,
      "stateMutability": "view",
      "type": "function"
    },
    {
      "constant": true,
      "inputs": [],
      "name": "weiGoal",
      "outputs": [
        {
          "name": "",
          "type": "uint256"
        }
      ],
      "payable": false,
      "stateMutability": "view",
      "type": "function"
    },
    {
      "inputs": [
        {
          "name": "_name",
          "type": "string"
        },
        {
          "name": "_weiGoal",
          "type": "uint256"
        }
      ],
      "payable": true,
      "stateMutability": "payable",
      "type": "constructor"
    }
  ],
  "bytecode": "0x60606040526040516106433803806106438339810160405280805182019190602001805190602001909190505060003411151561003b57600080fd5b336000806101000a81548173ffffffffffffffffffffffffffffffffffffffff021916908373ffffffffffffffffffffffffffffffffffffffff1602179055508160019080519060200190610091929190610105565b508060028190555034600460008060009054906101000a900473ffffffffffffffffffffffffffffffffffffffff1673ffffffffffffffffffffffffffffffffffffffff1673ffffffffffffffffffffffffffffffffffffffff1681526020019081526020016000208190555050506101aa565b828054600181600116156101000203166002900490600052602060002090601f016020900481019282601f1061014657805160ff1916838001178555610174565b82800160010185558215610174579182015b82811115610173578251825591602001919060010190610158565b5b5090506101819190610185565b5090565b6101a791905b808211156101a357600081600090555060010161018b565b5090565b90565b61048a806101b96000396000f300606060405260043610610078576000357c0100000000000000000000000000000000000000000000000000000000900463ffffffff16806306fdde031461007d5780634b77c4681461010b5780636ef9e14514610144578063d7bb99ba14610191578063e66f53b71461019b578063ec7dfb4d146101f0575b600080fd5b341561008857600080fd5b610090610219565b6040518080602001828103825283818151815260200191508051906020019080838360005b838110156100d05780820151818401526020810190506100b5565b50505050905090810190601f1680156100fd5780820380516001836020036101000a031916815260200191505b509250505060405180910390f35b341561011657600080fd5b610142600480803573ffffffffffffffffffffffffffffffffffffffff169060200190919050506102b7565b005b341561014f57600080fd5b61017b600480803573ffffffffffffffffffffffffffffffffffffffff1690602001909190505061032d565b6040518082815260200191505060405180910390f35b610199610345565b005b34156101a657600080fd5b6101ae6103e2565b604051808273ffffffffffffffffffffffffffffffffffffffff1673ffffffffffffffffffffffffffffffffffffffff16815260200191505060405180910390f35b34156101fb57600080fd5b610203610407565b6040518082815260200191505060405180910390f35b60018054600181600116156101000203166002900480601f0160208091040260200160405190810160405280929190818152602001828054600181600116156101000203166002900480156102af5780601f10610284576101008083540402835291602001916102af565b820191906000526020600020905b81548152906001019060200180831161029257829003601f168201915b505050505081565b600260011415156102c757600080fd5b600380548060010182816102db919061040d565b9160005260206000209001600083909190916101000a81548173ffffffffffffffffffffffffffffffffffffffff021916908373ffffffffffffffffffffffffffffffffffffffff1602179055505050565b60046020528060005260406000206000915090505481565b6000600460003373ffffffffffffffffffffffffffffffffffffffff1673ffffffffffffffffffffffffffffffffffffffff1681526020019081526020016000205411151561039357600080fd5b34600460003373ffffffffffffffffffffffffffffffffffffffff1673ffffffffffffffffffffffffffffffffffffffff16815260200190815260200160002060008282540192505081905550565b6000809054906101000a900473ffffffffffffffffffffffffffffffffffffffff1681565b60025481565b815481835581811511610434578183600052602060002091820191016104339190610439565b5b505050565b61045b91905b8082111561045757600081600090555060010161043f565b5090565b905600a165627a7a72305820c9d1c0542675f58e292fb3e05606b39d7926ef9ca5c5499ce768ae29222ad2d00029",
  "source": "pragma solidity ^0.4.18;\r\n\r\ncontract Fundraiser {\r\n    address public curator;\r\n    string public name;\r\n    uint public weiGoal;\r\n    address[] private invitees;\r\n    mapping(address => uint) public weiBalances;\r\n\r\n    function Fundraiser(string _name, uint _weiGoal) public payable {\r\n        require(msg.value > 0);\r\n        curator = msg.sender;\r\n        name = _name;\r\n        weiGoal = _weiGoal;\r\n        weiBalances[curator] = msg.value;\r\n    }\r\n\r\n    function invite(address invitee) public  {\r\n        require(1 == 2);\r\n        invitees.push(invitee);\r\n        // TODO fire event that can be detected to send emails, etc...\r\n    }\r\n\r\n    function contribute() public payable onlyContributors {\r\n        weiBalances[msg.sender] += msg.value;\r\n    }\r\n\r\n    modifier onlyCurator {\r\n        require(msg.sender == curator);\r\n        _;\r\n    }\r\n\r\n    modifier onlyContributors {\r\n        require(weiBalances[msg.sender] > 0);\r\n        _;\r\n    }\r\n}",
  "sourcePath": "C:\\dev\\eth-fundraiser\\contracts\\Fundraiser.sol",
  "compiler": {
    "name": "solc",
    "version": "0.4.18+commit.9cf6e910.Emscripten.clang"
  },
  "schemaVersion": "1.0.1",
  "updatedAt": "2018-01-22T18:59:22.380Z"
}