{
  "contractName": "Fundraiser",
  "abi": [
    {
      "constant": true,
      "inputs": [],
      "name": "name",
      "outputs": [
        {
          "name": "",
          "type": "string"
        }
      ],
      "payable": false,
      "stateMutability": "view",
      "type": "function"
    },
    {
      "constant": false,
      "inputs": [
        {
          "name": "_invitee",
          "type": "address"
        }
      ],
      "name": "invite",
      "outputs": [],
      "payable": true,
      "stateMutability": "payable",
      "type": "function"
    },
    {
      "constant": true,
      "inputs": [
        {
          "name": "",
          "type": "address"
        }
      ],
      "name": "weiBalances",
      "outputs": [
        {
          "name": "",
          "type": "uint256"
        }
      ],
      "payable": false,
      "stateMutability": "view",
      "type": "function"
    },
    {
      "constant": false,
      "inputs": [],
      "name": "contribute",
      "outputs": [],
      "payable": true,
      "stateMutability": "payable",
      "type": "function"
    },
    {
      "constant": true,
      "inputs": [],
      "name": "weiGoal",
      "outputs": [
        {
          "name": "",
          "type": "uint256"
        }
      ],
      "payable": false,
      "stateMutability": "view",
      "type": "function"
    },
    {
      "inputs": [
        {
          "name": "_name",
          "type": "string"
        },
        {
          "name": "_weiGoal",
          "type": "uint256"
        }
      ],
      "payable": true,
      "stateMutability": "payable",
      "type": "constructor"
    }
  ],
  "bytecode": "0x606060405260405161059d38038061059d8339810160405280805182019190602001805190602001909190505060003411151561003b57600080fd5b336000806101000a81548173ffffffffffffffffffffffffffffffffffffffff021916908373ffffffffffffffffffffffffffffffffffffffff1602179055508160019080519060200190610091929190610105565b508060028190555034600360008060009054906101000a900473ffffffffffffffffffffffffffffffffffffffff1673ffffffffffffffffffffffffffffffffffffffff1673ffffffffffffffffffffffffffffffffffffffff1681526020019081526020016000208190555050506101aa565b828054600181600116156101000203166002900490600052602060002090601f016020900481019282601f1061014657805160ff1916838001178555610174565b82800160010185558215610174579182015b82811115610173578251825591602001919060010190610158565b5b5090506101819190610185565b5090565b6101a791905b808211156101a357600081600090555060010161018b565b5090565b90565b6103e4806101b96000396000f30060606040526004361061006d576000357c0100000000000000000000000000000000000000000000000000000000900463ffffffff16806306fdde03146100725780634b77c468146101005780636ef9e1451461012e578063d7bb99ba1461017b578063ec7dfb4d14610185575b600080fd5b341561007d57600080fd5b6100856101ae565b6040518080602001828103825283818151815260200191508051906020019080838360005b838110156100c55780820151818401526020810190506100aa565b50505050905090810190601f1680156100f25780820380516001836020036101000a031916815260200191505b509250505060405180910390f35b61012c600480803573ffffffffffffffffffffffffffffffffffffffff1690602001909190505061024c565b005b341561013957600080fd5b610165600480803573ffffffffffffffffffffffffffffffffffffffff169060200190919050506102fd565b6040518082815260200191505060405180910390f35b610183610315565b005b341561019057600080fd5b6101986103b2565b6040518082815260200191505060405180910390f35b60018054600181600116156101000203166002900480601f0160208091040260200160405190810160405280929190818152602001828054600181600116156101000203166002900480156102445780601f1061021957610100808354040283529160200191610244565b820191906000526020600020905b81548152906001019060200180831161022757829003601f168201915b505050505081565b6000809054906101000a900473ffffffffffffffffffffffffffffffffffffffff1673ffffffffffffffffffffffffffffffffffffffff163373ffffffffffffffffffffffffffffffffffffffff161415156102a757600080fd5b6000341115156102b657600080fd5b34600360008373ffffffffffffffffffffffffffffffffffffffff1673ffffffffffffffffffffffffffffffffffffffff1681526020019081526020016000208190555050565b60036020528060005260406000206000915090505481565b6000600360003373ffffffffffffffffffffffffffffffffffffffff1673ffffffffffffffffffffffffffffffffffffffff1681526020019081526020016000205411151561036357600080fd5b34600360003373ffffffffffffffffffffffffffffffffffffffff1673ffffffffffffffffffffffffffffffffffffffff16815260200190815260200160002060008282540192505081905550565b600254815600a165627a7a72305820711aee4e735f4fc7a0b2902d2305044d0fd4b65535d10eb4a02b470e183469860029",
  "source": "pragma solidity ^0.4.17;\r\n\r\ncontract Fundraiser {\r\n    address private curator;\r\n    string public name;\r\n    uint public weiGoal;\r\n    mapping(address => uint) public weiBalances;\r\n\r\n    function Fundraiser(string _name, uint _weiGoal) public payable {\r\n        require(msg.value > 0);\r\n        curator = msg.sender;\r\n        name = _name;\r\n        weiGoal = _weiGoal;\r\n        weiBalances[curator] = msg.value;\r\n    }\r\n\r\n    function invite(address _invitee) public payable onlyCurator {\r\n        require(msg.value > 0);\r\n        weiBalances[_invitee] = msg.value;\r\n        // TODO fire event that can be detected to send emails, etc...\r\n    }\r\n\r\n    function contribute() public payable onlyInvitees {\r\n        weiBalances[msg.sender] += msg.value;\r\n    }\r\n\r\n    modifier onlyCurator {\r\n        require(msg.sender == curator);\r\n        _;\r\n    }\r\n\r\n    modifier onlyInvitees {\r\n        require(weiBalances[msg.sender] > 0);\r\n        _;\r\n    }\r\n}",
  "sourcePath": "C:\\dev\\eth-fundraiser\\contracts\\Fundraiser.sol",
  "compiler": {
    "name": "solc",
    "version": "0.4.18+commit.9cf6e910.Emscripten.clang"
  },
  "schemaVersion": "1.0.1",
  "updatedAt": "2018-01-22T17:00:09.658Z"
}